:100000000C9462000C948A000C948A000C948A0070
:100010000C948A000C948A000C948A000C948A0038
:100020000C948A000C948A000C948A000C948A0028
:100030000C948A000C948A000C948A000C948A0018
:100040000C9493020C948A000C9403030C94DD022C
:100050000C948A000C948A000C948A000C948A00F8
:100060000C948A000C948A000000000023002600F3
:10007000290000000000240027002A0000000000E2
:10008000250028002B0004040404040404040202D4
:100090000202020203030303030301020408102007
:1000A0004080010204081020010204081020000012
:1000B0000008000201000003040700000000000027
:1000C0000000830411241FBECFEFD8E0DEBFCDBFF8
:1000D00011E0A0E0B1E0E2EDF9E002C005900D9280
:1000E000A232B107D9F721E0A2E2B1E001C01D922E
:1000F000A83CB207E1F710E0C2E6D0E004C02197C7
:10010000FE010E94E104C136D107C9F70E94350300
:100110000C94E7040C940000833081F028F48130C3
:1001200099F08230A9F008958730A9F08830C9F09D
:100130008430B1F4809180008F7D03C08091800075
:100140008F7780938000089584B58F7784BD08955C
:1001500084B58F7DFBCF8091B0008F778093B00006
:1001600008958091B0008F7DF9CF1F93CF93DF93D7
:10017000282F30E0F901E255FF4F8491F901E6564E
:10018000FF4FD491F901EA57FF4FC491CC23A9F056
:10019000162F81110E948C00EC2FF0E0EE0FFF1F54
:1001A000E458FF4FA591B4918FB7F894EC911111D9
:1001B00008C0D095DE23DC938FBFDF91CF911F91D4
:1001C0000895DE2BF8CFCF93DF9390E0FC01E65645
:1001D000FF4F24918A579F4FFC0184918823D1F0CF
:1001E00090E0880F991FFC01EE58FF4FA591B49144
:1001F000FC01E458FF4FC591D49161110EC09FB727
:10020000F8948C91E22FE0958E238C932881E22341
:10021000E8839FBFDF91CF9108958FB7F894EC9159
:10022000E22BEC938FBFF6CF3FB7F8948091C401D7
:100230009091C501A091C601B091C70126B5A89BB8
:1002400005C02F3F19F00196A11DB11D3FBFBA2F68
:10025000A92F982F8827BC01CD01620F711D811D28
:10026000911D42E0660F771F881F991F4A95D1F7AD
:1002700008958F929F92AF92BF92CF92DF92EF92AA
:10028000FF920E9414014B015C0186E9C82ED12C1B
:10029000E12CF12C0E941401681979098A099B0943
:1002A000683E734081059105A8F321E0C21AD10888
:1002B000E108F10888EE880E83E0981EA11CB11CAD
:1002C000C114D104E104F10429F7FF90EF90DF900D
:1002D000CF90BF90AF909F908F900895AF92BF92B4
:1002E000CF92DF92EF92FF920F931F93CF93DF9302
:1002F0006C017B018B01040F151FEB015E01AE1831
:10030000BF08C017D10759F06991D601ED91FC9152
:100310000190F081E02DC6010995892B79F7C5017F
:10032000DF91CF911F910F91FF90EF90DF90CF90D1
:10033000BF90AF900895FC01538D448D252F30E080
:10034000842F90E0821B930B541710F0CF960895E2
:1003500001970895FC01918D828D981761F0A28D0F
:10036000AE0FBF2FB11D5D968C91928D9F5F9F73D5
:10037000928F90E008958FEF9FEF0895FC01918D8B
:10038000828D981731F0828DE80FF11D858D90E0F8
:1003900008958FEF9FEF0895FC01918D228D892F95
:1003A00090E0805C9F4F821B91098F73992708957D
:1003B00082E291E00E94CC0121E0892B09F420E047
:1003C000822F089580E090E0892B29F00E94D801C7
:1003D00081110C9400000895FC01A48DA80FB92F81
:1003E000B11DA35ABF4F2C91848D90E001968F735D
:1003F0009927848FA689B7892C93A089B1898C917C
:10040000837080648C93938D848D981306C00288CA
:10041000F389E02D80818F7D80830895EF92FF9294
:100420000F931F93CF93DF93EC0181E0888F9B8D17
:100430008C8D98131AC0E889F989808185FF15C0D1
:100440009FB7F894EE89FF896083E889F9898081F4
:100450008370806480839FBF81E090E0DF91CF91C3
:100460001F910F91FF90EF900895F62E0B8D10E0E5
:100470000F5F1F4F0F731127E02E8C8D8E110CC054
:100480000FB607FCFACFE889F989808185FFF5CF9F
:10049000CE010E94EC01F1CFEB8DEC0FFD2FF11D91
:1004A000E35AFF4FF0829FB7F8940B8FEA89FB89DC
:1004B00080818062CFCFCF93DF93EC01888D88233A
:1004C000B9F0AA89BB89E889F9898C9185FD03C0B7
:1004D000808186FD0DC00FB607FCF7CF8C9185FF9C
:1004E000F2CF808185FFEDCFCE010E94EC01E9CFF4
:1004F000DF91CF9108959B01AC01220F331F441F60
:10050000551F60E074E284EF90E00E94B0043093E5
:10051000870020938600E1E8F0E08081887F816099
:10052000808381E008951F920F920FB60F921124DD
:100530002F933F938F939F93AF93BF938091C0016D
:100540009091C101A091C201B091C3013091BF014E
:1005500023E0230F2D3758F50196A11DB11D2093DF
:10056000BF018093C0019093C101A093C201B093D9
:10057000C3018091C4019091C501A091C601B091C1
:10058000C7010196A11DB11D8093C4019093C501BF
:10059000A093C601B093C701BF91AF919F918F9176
:1005A0003F912F910F900FBE0F901F90189526E846
:1005B000230F0296A11DB11DD2CF1F920F920FB62D
:1005C0000F9211242F933F934F935F936F937F93D9
:1005D0008F939F93AF93BF93EF93FF9382E291E04A
:1005E0000E94EC01FF91EF91BF91AF919F918F918C
:1005F0007F916F915F914F913F912F910F900FBE1F
:100600000F901F9018951F920F920FB60F92112402
:100610002F938F939F93EF93FF93E0913201F0918B
:1006200033018081E0913801F091390182FD1BC0D6
:10063000908180913B018F5F8F7320913C018217E5
:1006400041F0E0913B01F0E0EE5DFE4F958F80932D
:100650003B01FF91EF919F918F912F910F900FBED2
:100660000F901F9018958081F4CF789484B58260A4
:1006700084BD84B5816084BD85B5826085BD85B546
:10068000816085BD80916E00816080936E001092C4
:10069000810080918100826080938100809181003F
:1006A00081608093810080918000816080938000D0
:1006B0008091B10084608093B1008091B00081602E
:1006C0008093B00080917A00846080937A0080915A
:1006D0007A00826080937A0080917A0081608093B2
:1006E0007A0080917A00806880937A001092C1002D
:1006F000E0913201F091330182E08083E0912E019C
:10070000F0912F011082E0913001F09131018FECD6
:10071000808310923A01E0913601F091370186E032
:100720008083E0913401F091350180818061808384
:10073000E0913401F0913501808188608083E091FF
:100740003401F0913501808180688083E09134012B
:10075000F091350180818F7D808361E08AE00E9485
:10076000E30060E08EE00E94E30061E08DE00E9423
:10077000E300809180008C7F8093800080918100D5
:10078000877E80618093810064EF71E080E090E07B
:100790000E947B028091B0008C7F81608093B000CA
:1007A0008091B10088608093B100C0E08EE390E05A
:1007B000C12C64E2D62E64EFE62EF12CCF5FEC2F35
:1007C000F0E0EE0FFF1FEE5EFE4F00811181081773
:1007D0001907A0F39801A8EEB3E00E94D2049B0190
:1007E000AC01C701B6010E94B004C8012F3F31051A
:1007F00009F020F72093B3008091B100887FC77083
:10080000C82BC093B100E8EBF0E0E4918DEF8E0FC0
:10081000823008F046C060E27EE480E090E00E9412
:100820007B0261E08AE00E94E30061E08AE00E94CE
:10083000B500CCEBD0E008EA10E094E9E92E90E0B6
:10084000F92E20E0C22E20E0D22EFE018491F80184
:10085000A490F701B490BB20D1F081110E948C00CC
:10086000EB2DF0E0EE0FFF1FE859FF4FA591B4917B
:100870008C91A82261F060E08DE00E94B5000E949A
:10088000390161E08DE00E94B5000E943901C11478
:10089000D104D9F20E94D8018823B9F20E94000045
:1008A000D4CFE83009F0BDCFC0E081E090E0C12CAA
:1008B00044E2D42E44EFE42EF12CCF5FEC2FF0E095
:1008C000EE0FFF1FEE5EFE4F008111810817190722
:1008D000A0F39801A0E4BCE90E94D2049B01AC0102
:1008E000C701B6010E94B004C8012F3F310509F0CD
:1008F00020F72093B3008091B100887FC770C82B88
:10090000C093B1008ECFE2E2F1E01382128288EE52
:1009100093E0A0E0B0E084839583A683B78384E06E
:1009200091E09183808385EC90E09587848784ECC7
:1009300090E09787868780EC90E0918B808B81ECAC
:1009400090E0938B828B82EC90E0958B848B86EC8D
:1009500090E0978B868B118E128E138E148E0895D5
:10096000A1E21A2EAA1BBB1BFD010DC0AA1FBB1FB3
:10097000EE1FFF1FA217B307E407F50720F0A21B25
:10098000B30BE40BF50B661F771F881F991F1A9492
:1009900069F760957095809590959B01AC01BD01BC
:1009A000CF010895A29FB001B39FC001A39F700D16
:1009B000811D1124911DB29F700D811D1124911D67
:1009C0000895EE0FFF1F0590F491E02D0994F8941F
:0209D000FFCF57
:1009D200000000000E026E019B015B02CC01AA0125
:1009E200BE0100000100080020004000800000015C
:0209F2000004FF
:00000001FF
