:100000000C9462000C948A000C948A000C948A0070
:100010000C948A000C948A000C948A000C948A0038
:100020000C948A000C948A000C948A000C948A0028
:100030000C948A000C948A000C948A000C948A0018
:100040000C9438040C948A000C94A8040C94820438
:100050000C948A000C948A000C948A000C948A00F8
:100060000C948A000C948A000000000024002700F1
:100070002A0000000000250028002B0000000000DE
:1000800023002600290004040404040404040202DA
:100090000202020203030303030301020408102007
:1000A0004080010204081020010204081020000012
:1000B0000008000201000003040700000000000027
:1000C0000000610611241FBECFEFD8E0DEBFCDBF18
:1000D00011E0A0E0B1E0EEE8FDE002C005900D9275
:1000E000A435B107D9F722E0A4E5B1E001C01D9223
:1000F000A330B207E1F710E0C2E6D0E004C02197D8
:10010000FE010E94BF06C136D107C9F70E94DA047A
:100110000C94C5060C940000833081F028F48130E3
:1001200099F08230A9F008958730A9F08830C9F09D
:100130008430B1F4809180008F7D03C08091800075
:100140008F7780938000089584B58F7784BD08955C
:1001500084B58F7DFBCF8091B0008F778093B00006
:1001600008958091B0008F7DF9CFCF93DF93282F32
:1001700030E0F901E255FF4F8491F901E656FF4F57
:10018000D491F901EA57FF4FC491CC23A1F081111A
:100190000E948C00EC2FF0E0EE0FFF1FE458FF4FA1
:1001A000A591B491EC91ED2381E090E009F480E019
:1001B000DF91CF91089580E090E0FACF1F93CF9325
:1001C000DF93282F30E0F901E255FF4F8491F901C8
:1001D000E656FF4FD491F901EA57FF4FC491CC2363
:1001E000A9F0162F81110E948C00EC2FF0E0EE0F89
:1001F000FF1FEE58FF4FA591B4918FB7F894EC9183
:10020000111108C0D095DE23DC938FBFDF91CF9111
:100210001F910895DE2BF8CFCF93DF9390E0FC0180
:10022000E656FF4F24918A579F4FFC018491882303
:10023000D1F090E0880F991FFC01E859FF4FA5917C
:10024000B491FC01EE58FF4FC591D49161110EC0DD
:100250009FB7F8948C91E22FE0958E238C932881A0
:10026000E223E8839FBFDF91CF9108958FB7F89481
:10027000EC91E22BEC938FBFF6CF3FB7F8948091CF
:10028000FF0190910002A0910102B091020226B5F7
:10029000A89B05C02F3F19F00196A11DB11D3FBFBE
:1002A000BA2FA92F982F8827BC01CD01620F711D8D
:1002B000811D911D42E0660F771F881F991F4A9587
:1002C000D1F708958F929F92AF92BF92CF92DF9213
:1002D000EF92FF924B015C010E943D016B017C019A
:1002E0000E943D016C197D098E099F09683E73408B
:1002F00081059105A8F321E0821A9108A108B108AF
:1003000088EEC80E83E0D81EE11CF11C8114910414
:10031000A104B10429F7FF90EF90DF90CF90BF9038
:10032000AF909F908F900895AF92BF92CF92DF923F
:10033000EF92FF920F931F93CF93DF936C017B019A
:100340008B01040F151FEB015E01AE18BF08C0172B
:10035000D10759F06991D601ED91FC910190F0819E
:10036000E02DC6010995892B79F7C501DF91CF9161
:100370001F910F91FF90EF90DF90CF90BF90AF90C3
:100380000895FC01538D448D252F30E0842F90E09B
:10039000821B930B541710F0CF9608950197089580
:1003A000FC01918D828D981761F0A28DAE0FBF2F49
:1003B000B11D5D968C91928D9F5F9F73928F90E09F
:1003C00008958FEF9FEF0895FC01918D828D98170E
:1003D00031F0828DE80FF11D858D90E008958FEF4B
:1003E0009FEF0895FC01918D228D892F90E0805C14
:1003F0009F4F821B91098F73992708958DE591E096
:100400000E94F20121E0892B09F420E0822F089557
:1004100080E090E0892B29F00E94FE0181110C946C
:1004200000000895FC01A48DA80FB92FB11DA35A97
:10043000BF4F2C91848D90E001968F739927848F04
:10044000A689B7892C93A089B1898C918370806427
:100450008C93938D848D981306C00288F389E02DC8
:1004600080818F7D80830895EF92FF920F931F9379
:10047000CF93DF93EC0181E0888F9B8D8C8D981357
:100480001AC0E889F989808185FF15C09FB7F89463
:10049000EE89FF896083E889F989808183708064AF
:1004A00080839FBF81E090E0DF91CF911F910F91FA
:1004B000FF90EF900895F62E0B8D10E00F5F1F4F09
:1004C0000F731127E02E8C8D8E110CC00FB607FC18
:1004D000FACFE889F989808185FFF5CFCE010E94A6
:1004E0001202F1CFEB8DEC0FFD2FF11DE35AFF4F00
:1004F000F0829FB7F8940B8FEA89FB898081806234
:10050000CFCFCF93DF93EC01888D8823B9F0AA89F0
:10051000BB89E889F9898C9185FD03C0808186FDBE
:100520000DC00FB607FCF7CF8C9185FFF2CF80810D
:1005300085FFEDCFCE010E941202E9CFDF91CF916E
:1005400008959B01AC01220F331F441F551F60E02B
:1005500074E284EF90E00E948E063093870020932F
:100560008600E1E8F0E08081887F8160808381E01F
:10057000089520910001222371F020915C01222333
:1005800051F0FC0110920001099566E970E080E0ED
:1005900090E00C9462010895EF92FF920F931F93E5
:1005A000CF93DF9380915A0190915B01049734F0CF
:1005B00081E090E090935B0180935A0161E083E0D9
:1005C0000E94DE0061E084E00E94DE0061E085E0E0
:1005D0000E94DE0097E1E92E91E0F92E10E000E0A4
:1005E000C0915A01D0915B010C171D075CF4F70113
:1005F0008081F2E0EF0EF11C60E00E94DE000F5FF0
:100600001F4FEECF61E08AE00E940C0161E08AE0BA
:100610000E94DE0064E670E080E090E00E946201EB
:10062000CC0FDD1FC35EDE4FC88161E08AE00E940F
:100630000C01C1110AC060E08AE0DF91CF911F91E7
:100640000F91FF90EF900C94DE00CF3F11F461E02A
:10065000F3CFE8EBF0E0E491E33081F128F4E2300D
:1006600099F0C7FFE8CFF3CFE43009F440C0E83099
:10067000C1F78091B00080628093B000A091B30078
:10068000B0E004EB10E007C084B5806284BDA7B57C
:10069000B0E008E410E02C2F30E00E94B0062FEF0D
:1006A00030E040E050E00E948E06F8012083DF91A8
:1006B000CF911F910F91FF90EF900895809180004E
:1006C000806880938000A0918600B091870008E840
:1006D00010E02C2F30E00E94B0062FEF30E040E019
:1006E00050E00E948E06F80131832083E0CF809194
:1006F0008000806280938000A0918600B091870086
:100700000AE810E0E6CF80915A0190915B010196D2
:1007100090935B0180935A010E94CC020895CF937D
:1007200080915C01C1E08C2790E090935B01809305
:100730005A0110925901109258010E94CC020E9455
:10074000E5031092000180915C018C2780935C018D
:1007500066E970E080E090E0CF910C946201E09156
:100760005801F0915901EE0FFF1FEE0FFF1FEF5FD1
:10077000FE4F80819181A281B381409154015091BB
:1007800055016091560170915701840F951FA61F66
:10079000B71F2FB7F8944091FB015091FC01609175
:1007A000FD017091FE012FBF84179507A607B707BB
:1007B00058F48091580190915901892B29F080912A
:1007C000000181110C948F0308950F931F93CF9311
:1007D000DF932FB7F8948091FB019091FC01A091D9
:1007E000FD01B091FE012FBF8093540190935501FC
:1007F000A0935601B09357018091580190915901EF
:10080000049724F0109259011092580161E088E099
:100810000E94DE0061E087E00E94DE0061E086E089
:100820000E94DE0001E111E0D0E0C0E080915801BB
:1008300090915901C817D9074CF4F80180810E5FD7
:100840001F4F60E00E94DE002196F0CFDF91CF9134
:100850001F910F910C94AF03809158019091590111
:10086000019690935901809358010E94E5030895E1
:100870001F920F920FB60F9211242F933F938F93D5
:100880009F93AF93BF938091FB019091FC01A09146
:10089000FD01B091FE013091FA0123E0230F2D37C5
:1008A00058F50196A11DB11D2093FA018093FB011B
:1008B0009093FC01A093FD01B093FE018091FF0194
:1008C00090910002A0910102B09102020196A11D37
:1008D000B11D8093FF0190930002A0930102B09399
:1008E0000202BF91AF919F918F913F912F910F90F5
:1008F0000FBE0F901F90189526E8230F0296A11D9A
:10090000B11DD2CF1F920F920FB60F9211242F93C9
:100910003F934F935F936F937F938F939F93AF9387
:10092000BF93EF93FF938DE591E00E941202FF9138
:10093000EF91BF91AF919F918F917F916F915F9157
:100940004F913F912F910F900FBE0F901F901895D0
:100950001F920F920FB60F9211242F938F939F9394
:10096000EF93FF93E0916D01F0916E018081E09132
:100970007301F091740182FD1BC09081809176011A
:100980008F5F8F7320917701821741F0E09176019C
:10099000F0E0E35AFE4F958F80937601FF91EF913F
:1009A0009F918F912F910F900FBE0F901F901895D0
:1009B0008081F4CF789484B5826084BD84B58160F1
:1009C00084BD85B5826085BD85B5816085BD80911A
:1009D0006E00816080936E00109281008091810092
:1009E000826080938100809181008160809381008A
:1009F000809180008160809380008091B10084604C
:100A00008093B1008091B00081608093B0008091AC
:100A10007A00846080937A0080917A00826080936B
:100A20007A0080917A00816080937A0080917A00C8
:100A3000806880937A001092C100C7E3D1E003E49C
:100A400011E00C171D0731F08881229661E00E94A9
:100A5000DE00F7CFE0916D01F0916E0182E08083BE
:100A6000E0916901F0916A011082E0916B01F091CF
:100A70006C018FEC808310927501E0917101F0910F
:100A8000720186E08083E0916F01F09170018081B6
:100A900080618083E0916F01F091700180818860B6
:100AA0008083E0916F01F091700180818068808384
:100AB000E0916F01F091700180818F7D808361E012
:100AC00083E00E940C0161E084E00E940C0161E07F
:100AD00085E00E940C0161E086E00E940C0161E06B
:100AE00087E00E940C0161E088E00E940C0160E058
:100AF00082E00E940C0160E089E00E940C0160E04D
:100B00008BE00E940C0161E08AE00E940C0160E031
:100B10008EE00E940C0161E08DE00E940C0180914A
:100B200080008C7F8093800080918100877E80612F
:100B30008093810064EF71E080E090E00E94A10268
:100B40008091B0008C7F81608093B0008091B10073
:100B500088608093B100C0E08EE390E0C12C54E245
:100B6000D52E54EFE52EF12CCF5FEC2FF0E0EE0FF9
:100B7000FF1FED5BFE4F0081118108171907A0F3DD
:100B80009801A8EEB3E00E94B0069B01AC01C7013A
:100B9000B6010E948E06C8012F3F310509F020F7EB
:100BA0002093B3008091B100887FC770C82BC09399
:100BB000B100E8EBF0E0E4918DEF8E0F823060F54C
:100BC00060E27EE480E090E00E94A102C0E0D0E01C
:100BD00011E08EE00E94B500019709F04EC060E080
:100BE0008DE00E94DE006AE070E080E090E00E940C
:100BF000620161E08DE00E94DE006AE070E080E06A
:100C000090E00E946201209721F30E94FE01882358
:100C100001F30E940000DDCFE830C1F6C0E081E0C2
:100C200090E0C12C34E2D32E34EFE32EF12CCF5FD1
:100C3000EC2FF0E0EE0FFF1FED5BFE4F0081118106
:100C400008171907A0F39801A0E4BCE90E94B006B8
:100C50009B01AC01C701B6010E948E06C8012F3F5F
:100C6000310509F020F72093B3008091B100887F0F
:100C7000C770C82BC093B100A9CF8BE00E94B5000C
:100C80000197B9F089E00E94B500019779F082E000
:100C90000E94B500019729F483E893E00E94B9020D
:100CA000B2CF0E94AF0310930001ADCF8CE294E06D
:100CB000F5CF80910001882309F4A5CF0E948F030E
:100CC000A2CFEDE5F1E01382128288EE93E0A0E07E
:100CD000B0E084839583A683B78389E291E0918312
:100CE000808385EC90E09587848784EC90E09787FB
:100CF000868780EC90E0918B808B81EC90E0938BE9
:100D0000828B82EC90E0958B848B86EC90E0978BC5
:100D1000868B118E128E138E148E0895A1E21A2ED8
:100D2000AA1BBB1BFD010DC0AA1FBB1FEE1FFF1F8F
:100D3000A217B307E407F50720F0A21BB30BE40BDF
:100D4000F50B661F771F881F991F1A9469F7609526
:100D50007095809590959B01AC01BD01CF010895E0
:100D6000A29FB001B39FC001A39F700D811D1124EC
:100D7000911DB29F700D811D1124911D0895EE0FDC
:0E0D8000FF1F0590F491E02D0994F894FFCF29
:100D8E00010000000040771B0080EE3600C0655267
:100D9E000008000700060003000400050000004DD7
:100DAE0000B300FF000000000034029401C1018175
:100DBE0002F201D001E4010300040005000800075F
:100DCE000006000000010008002000400080000026
:040DDE00010004000C
:00000001FF
